:020000040800F2
:100000000050002079090008890800088F080008BE
:10001000950800089B080008A108000800000000DF
:10002000000000000000000000000000A708000819
:10003000B308000800000000BF080008CB08000853
:10004000C1090008C1090008C1090008C109000868
:10005000C1090008C1090008C1090008C109000858
:10006000C1090008C1090008C1090008D908000831
:10007000C1090008C1090008C1090008C109000838
:10008000C1090008C1090008ED080008C1090008FD
:10009000C1090008C1090008C1090008C109000818
:1000A000C1090008C1090008C1090008C109000808
:1000B000C1090008C1090008C1090008C1090008F8
:1000C000C1090008C1090008C1090008C1090008E8
:1000D000C1090008C1090008C1090008C1090008D8
:1000E000C1090008C1090008C1090008000000009A
:1000F0000000000000000000000000000000000000
:0C01000000000000000000005FF808F1A3
:10010C0010B5054C237833B9044B13B10448AFF345
:10011C0000800123237010BD5C0000200000000053
:10012C00603A000808B5034B1BB103490348AFF311
:10013C00008008BD0000000060000020603A00084C
:10014C0080B586B002AF0346FB71FB7923F00F0339
:10015C00FB73FB791B01BB73FB7B43F00C03DBB222
:10016C003B72FB7B43F00803DBB27B72BB7B43F03F
:10017C000C03DBB2BB72BB7B43F00803DBB2FB723C
:10018C0007F108026423009304234E21034801F075
:10019C00A5FF00BF1037BD4680BD00BFEC0000209E
:1001AC0080B586B002AF0346FB71FB7923F00F03D9
:1001BC00FB73FB791B01BB73FB7B43F00D03DBB2C1
:1001CC003B72FB7B43F00903DBB27B72BB7B43F0DE
:1001DC000D03DBB2BB72BB7B43F00903DBB2FB72DA
:1001EC0007F108026423009304234E21034801F015
:1001FC0075FF00BF1037BD4680BD00BFEC0000206E
:10020C0080B582B002AF4FF47A7000F037FC6423F3
:10021C000093012300224E21204801F05FFF4FF490
:10022C00FA7000F02BFC2C20FFF78AFF012000F065
:10023C0025FC2C20FFF784FF012000F01FFC2C2054
:10024C00FFF77EFF012000F019FC2020FFF778FF5C
:10025C00012000F013FC2C20FFF772FF012000F0AE
:10026C000DFC0C20FFF76CFF012000F007FC0120B7
:10027C00FFF766FF012000F001FC0620FFF760FF8E
:10028C00012000F0FBFB0C20FFF75AFF012000F0CF
:10029C00F5FB00F005F800BFBD4680BDEC0000206A
:1002AC0080B500AF0120FFF74BFF052000F0E6FB07
:1002BC0000BF80BD80B582B000AF03463A60FB71D1
:1002CC000B46BB71FB79013BFB71BB79013BBB71ED
:1002DC00FB79032B1AD801A252F823F0F90200087B
:1002EC00010300080903000811030008BB79803BD7
:1002FC00BB710FE0BB79403BBB710BE0BB796C3B36
:10030C00BB7107E0BB792C3BBB7103E0BB79803B35
:10031C00BB7100BFBB791846FFF712FF06E03B68C4
:10032C005A1C3A601B781846FFF73AFF3B681B785B
:10033C00002BF4D100BF00BF0837BD4680BD00BF05
:10034C0080B584B000AF3B1D00221A605A609A60E1
:10035C00274B284A1A60264B4FF480729A60244B24
:10036C0000221A73224B00221A75214B4FF4602283
:10037C00DA611F4B00225A601D4B03221A611C4884
:10038C0000F0A0FB0346002B01D000F040FA002344
:10039C007B600123BB600023FB603B1D19461448A6
:1003AC0000F0D6FE0346002B01D000F030FA0123FA
:1003BC007B600223BB603B1D19460D4800F0C8FE54
:1003CC000346002B01D000F022FA02237B600323AA
:1003DC00BB603B1D1946064800F0BAFE0346002BD5
:1003EC0001D000F014FA00BF1037BD4680BD00BF2D
:1003FC00780000200024014080B588B000AF786000
:10040C0007F1100300221A605A609A60DA607B6868
:10041C001B682C4A934251D12B4B9B692A4A43F4BB
:10042C0000739361284B9B6903F40073FB60FB68BA
:10043C00254B9B69244A43F004039361224B9B692F
:10044C0003F00403BB60BB6807233B6103237B61A0
:10045C0007F1100319461D4801F078FB1C4B1D4A8F
:10046C001A601B4B00225A60194B00229A60184BE1
:10047C008022DA60164B4FF480721A61144B4FF4E1
:10048C0000625A61124B20229A61114B0022DA61F0
:10049C000F4801F06DF90346002B01D000F0B7F9BD
:1004AC007B680B4A1A620A4A7B685362002200215D
:1004BC00122001F026F9122001F03FF900BF20377D
:1004CC00BD4680BD002401400010024000080140E0
:1004DC00A80000200800024080B582B000AF0C4B91
:1004EC005B690B4A43F001035361094B5B6903F0F1
:1004FC0001037B607B68002200210B2001F001F9D5
:10050C000B2001F01AF900BF0837BD4680BD00BFB3
:10051C000010024080B485B000AF144B9B69134AA5
:10052C0043F020039361114B9B6903F02003FB60A4
:10053C00FB680E4B9B690D4A43F0040393610B4B14
:10054C009B6903F00403BB60BB68084B9B69074ABB
:10055C0043F008039361054B9B6903F008037B6030
:10056C007B6800BF1437BD4680BC7047001002404A
:10057C0080B500AF124B134A1A60114B124A5A60E5
:10058C000F4B00229A600E4B0022DA600C4B4FF49A
:10059C0080421A610A4B00225A61094B00229A616F
:1005AC00074B0022DA61064B00221A62044801F064
:1005BC0051FC0346002B01D000F029F900BF80BD8F
:1005CC00EC00002000540040A086010080B58AB0E9
:1005DC0000AF786007F1140300221A605A609A6029
:1005EC00DA607B681B681D4A934232D11C4B9B69B5
:1005FC001B4A43F008039361194B9B6903F00803F2
:10060C003B613B694FF440737B611223BB61032355
:10061C003B6207F114031946124801F097FA124B8A
:10062C005B687B627B6A43F0E0637B627B6A43F0CE
:10063C0002037B620C4A7B6A5360094BDB69084AF4
:10064C0043F40013D361064BDB6903F40013FB6026
:10065C00FB6800BF2837BD4680BD00BF005400407A
:10066C0000100240000C01400000014080B500AFBA
:10067C0000F0A2F900F070F8FFF74CFFFFF72CFF29
:10068C00FFF75EFEFFF774FFFFF7BAFD032219496F
:10069C00194800F0A5FB184800F0ECFA164800F0D9
:1006AC00E9FA164B1B881A461549164802F020FD2C
:1006BC00144A01210120FFF7FDFD104B5B881A46FF
:1006CC001149104802F014FD0E4A09210120FFF7D0
:1006DC00F1FD0A4B9B881A460C490A4802F008FDAA
:1006EC00084A01210220FFF7E5FD962000F0C6F92B
:1006FC00D4E700BF40010020780000204C0100200E
:10070C00783A000854010020803A0008883A000822
:10071C0080B483B000AF78607B681B680B4A93424F
:10072C000ED10B4B1B689AB20A4B1A80084B5B68B4
:10073C009AB2084B5A80064B9B689AB2054B9A802A
:10074C0000BF0C37BD4680BC704700BF0024014081
:10075C00400100204C01002080B594B000AF07F19F
:10076C00280328220021184602F0E2FC07F11403AA
:10077C0000221A605A609A60DA601A613B1D0022EE
:10078C001A605A609A60DA600123BB624FF48033BE
:10079C00FB6200233B630123BB6302237B644FF4A6
:1007AC008033BB644FF4E013FB6407F12803184655
:1007BC0001F0ECFF0346002B01D000F028F80F23CA
:1007CC007B610223BB610023FB614FF480633B62BE
:1007DC0000237B6207F114030221184602F058FA39
:1007EC000346002B01D000F012F802237B604FF47B
:1007FC000043FB603B1D184602F0C4FB0346002B74
:10080C0001D000F004F800BF5037BD4680BD80B465
:10081C0000AF72B600BFFEE780B485B000AF154BD9
:10082C009B69144A43F001039361124B9B6903F0DB
:10083C000103BB60BB680F4BDB690E4A43F080536E
:10084C00D3610C4BDB6903F080537B607B680A4BF4
:10085C005B68FB60FB6823F0E063FB60FB6843F0C4
:10086C008063FB60044AFB68536000BF1437BD46CD
:10087C0080BC7047001002400000014080B400AF03
:10088C00FEE780B400AFFEE780B400AFFEE780B4B3
:10089C0000AFFEE780B400AFFEE780B400AF00BF4E
:1008AC00BD4680BC704780B400AF00BFBD4680BC65
:1008BC00704780B400AF00BFBD4680BC704780B5A8
:1008CC0000AF00F0BFF800BF80BD000080B500AFE6
:1008DC00024801F007F800BF80BD00BFA80000204F
:1008EC0080B500AF024800F059FB00BF80BD00BFCF
:1008FC007800002080B586B000AF7860144A154BA4
:10090C00D31A7B617B693B61134B1B68002B02D1B3
:10091C00114B124A1A60104B1A687B6813443A69DF
:10092C009A4207D202F00CFC03460C221A604FF0DC
:10093C00FF3309E0084B1B68FB60074B1A687B68A8
:10094C001344054A1360FB6818461837BD4680BD32
:10095C00005000200004000068010020B8020020B4
:10096C0080B400AF00BFBD4680BC7047FFF7F8FFF6
:10097C000B480C490C4A002302E0D458C4500433F1
:10098C00C4188C42F9D3094A094C002301E01360C6
:10099C000432A242FBD302F0D9FBFFF767FE70478B
:1009AC00000000205C000020F83A00085C000020E9
:1009BC00B8020020FEE7000080B500AF084B1B68B2
:1009CC00074A43F010031360032000F08FFE0F2042
:1009DC0000F008F8FFF720FF0023184680BD00BF89
:1009EC000020024080B582B000AF7860124B1A68CC
:1009FC00124B1B7819464FF47A73B3FBF1F3B2FB2D
:100A0C00F3F3184600F0A7FE0346002B01D0012398
:100A1C000EE07B680F2B0AD8002279684FF0FF306C
:100A2C0000F06FFE064A7B681360002300E0012390
:100A3C0018460837BD4680BD000000200800002085
:100A4C000400002080B400AF054B1B781A46054B00
:100A5C001B681344034A136000BFBD4680BC70473B
:100A6C00080000206C01002080B400AF024B1B6812
:100A7C001846BD4680BC70476C01002080B584B020
:100A8C0000AF7860FFF7F0FFB8607B68FB60FB6835
:100A9C00B3F1FF3F05D00A4B1B781A46FB68134491
:100AAC00FB6000BFFFF7E0FF0246BB68D31AFA6891
:100ABC009A42F7D800BF00BF1037BD4680BD00BFBB
:100ACC000800002080B586B000AF78600023FB756D
:100ADC0000233B610023BB600023FB607B68002B81
:100AEC0001D10123BEE07B689B68002B7B689B6A6D
:100AFC00002B09D17B680022DA627B68002283F824
:100B0C0024207868FFF778FC786800F073FC0346C3
:100B1C00FB757B689B6A03F01003002B40F09980F7
:100B2C00FB7D002B40F095807B689B6A23F48853F7
:100B3C0023F0020343F002027B689A627B685A68D6
:100B4C007B68DB691A437B681B7B5B001343BA68C9
:100B5C001343BB607B689B68B3F5807F03D07B68D5
:100B6C009B68012B02D14FF4807300E000233A699B
:100B7C0013433B617B681B7D012B19D17B681B7B6D
:100B8C00002B09D17B689B69013B5A033B691343DA
:100B9C0043F400633B610BE07B689B6A43F02002EB
:100BAC007B689A627B68DB6A43F001027B68DA62DD
:100BBC007B681B685B6823F469417B681B683A6936
:100BCC000A435A607B681B689A68284B13407A6802
:100BDC001268B9680B4393607B689B68B3F5807FA0
:100BEC0003D07B689B68012B04D17B681B69013B9C
:100BFC001B05FB607B681B68DB6A23F470017B6858
:100C0C001B68FA680A43DA627B681B689A68184B9F
:100C1C001340BA689A420BD17B680022DA627B6877
:100C2C009B6A23F0030343F001027B689A6218E08D
:100C3C007B689B6A23F0120343F010027B689A6274
:100C4C007B68DB6A43F001027B68DA620123FB7587
:100C5C0007E07B689B6A43F010027B689A62012371
:100C6C00FB75FB7D18461837BD4680BDFDF7E1FFCF
:100C7C00FE0E1FFF80B584B000AF78600023FB73BD
:100C8C007B6893F82430012B01D10223A0E07B6810
:100C9C00012283F82420786800F052FB0346FB7392
:100CAC00FB7B002B40F08F807B689B6A23F4706386
:100CBC0023F0010343F480727B689A627B681B68A3
:100CCC00454A934205D1454B5B6803F47023002BD6
:100CDC0015D17B689B6A23F480127B689A627B68CF
:100CEC001B685B6803F48063002B26D07B689B6ACF
:100CFC0023F4405343F480527B689A621DE07B6876
:100D0C009B6A43F480127B689A627B681B68334A47
:100D1C00934204D07B681B682F4A93420DD12F4B12
:100D2C005B6803F48063002B07D07B689B6A23F419
:100D3C00405343F480527B689A627B689B6A03F44D
:100D4C008053002B06D07B68DB6A23F006027B689D
:100D5C00DA6202E07B680022DA627B68002283F8A8
:100D6C0024207B681B686FF002021A607B681B688A
:100D7C005A687B681B6842F020025A607B681B68CB
:100D8C009B6803F46023B3F5602F13D17B681B6859
:100D9C00114A934205D1114B5B6803F47023002B6D
:100DAC0008D17B681B689A687B681B6842F4A002B8
:100DBC009A600CE07B681B689A687B681B6842F43D
:100DCC0080129A6003E07B68002283F82420FB7B6E
:100DDC0018461037BD4680BD002801400024014054
:100DEC0080B586B000AFF860B9607A600023FB75FF
:100DFC00FB681B68644A934204D0FB681B68634A17
:100E0C00934206D1604B5B6803F47023002B40F0D7
:100E1C00B380FB6893F82430012B01D10223AEE0A0
:100E2C00FB68012283F82420F86800F089FA034655
:100E3C00FB75FB7D002B40F09A80FB689B6A23F4CA
:100E4C00706323F0010343F48072FB689A62FB68C1
:100E5C001B684E4A934205D14B4B5B6803F47023DD
:100E6C00002B15D1FB689B6A23F48012FB689A62F5
:100E7C00FB681B685B6803F48063002B26D0FB685F
:100E8C009B6A23F4405343F48052FB689A621DE042
:100E9C00FB689B6A43F48012FB689A62FB681B68D0
:100EAC00394A934204D0FB681B68384A93420DD1EF
:100EBC00354B5B6803F48063002B07D0FB689B6A9F
:100ECC0023F4405343F48052FB689A62FB689B6A9C
:100EDC0003F48053002B06D0FB68DB6A23F0060278
:100EEC00FB68DA6202E0FB680022DA62FB6800222F
:100EFC0083F82420FB681B6A254A9A62FB681B6AEC
:100F0C00244ADA62FB681B6A234A1A63FB681B6873
:100F1C006FF002021A60FB681B689A68FB681B681A
:100F2C0042F480729A60FB68186AFB681B684C3349
:100F3C001946BA687B6800F075FCFB681B689B68F7
:100F4C0003F46023B3F5602F08D1FB681B689A6823
:100F5C00FB681B6842F4A0029A600FE0FB681B68F8
:100F6C009A68FB681B6842F480129A6006E0FB6882
:100F7C00002283F8242001E00123FB75FB7D184639
:100F8C001837BD4680BD00BF002401400028014039
:100F9C0083140008FF1400081B15000880B584B0EA
:100FAC0000AF78607B681B681B68FB607B681B6804
:100FBC005B68BB60BB6803F02003002B3ED0FB6872
:100FCC0003F00203002B39D07B689B6A03F01003FB
:100FDC00002B05D17B689B6A43F400727B689A6294
:100FEC007B681B689B6803F46023B3F5602F1DD1ED
:100FFC007B681B7B002B19D17B681B685A687B684C
:10100C001B6822F020025A607B689B6A23F4807272
:10101C007B689A627B689B6A03F48053002B05D132
:10102C007B689B6A43F001027B689A627868FFF7E1
:10103C006FFB7B681B686FF012021A60BB6803F0D1
:10104C008003002B4DD0FB6803F00403002B48D029
:10105C007B689B6A03F01003002B05D17B689B6AAD
:10106C0043F400527B689A627B681B689B6803F4AC
:10107C00E043B3F5E04F12D07B681B685B6803F468
:10108C008063002B25D17B681B689B6803F460236D
:10109C00B3F5602F1DD17B681B7B002B19D17B68AE
:1010AC001B685A687B681B6822F080025A607B6858
:1010BC009B6A23F480527B689A627B689B6A03F478
:1010CC008073002B05D17B689B6A43F001027B681F
:1010DC009A62786800F035FA7B681B686FF00C0236
:1010EC001A60BB6803F04003002B12D0FB6803F0BE
:1010FC000103002B0DD07B689B6A43F480327B6824
:10110C009A62786800F012F87B681B686FF0010235
:10111C001A6000BF1037BD4680BD80B483B000AFED
:10112C00786000BF0C37BD4680BC704780B483B07C
:10113C0000AF786000BF0C37BD4680BC704780B4F0
:10114C0083B000AF786000BF0C37BD4680BC7047E1
:10115C0080B485B000AF786039600023FB73002346
:10116C00BB607B6893F82430012B01D10223DCE0B7
:10117C007B68012283F824203B685B68062B1CD813
:10118C007B681B68596B3B685A6813469B00134479
:10119C00053B1F2202FA03F3DB4319403B68186836
:1011AC003B685A6813469B001344053B00FA03F254
:1011BC007B681B680A435A633CE03B685B680C2BFA
:1011CC001CD87B681B68196B3B685A6813469B00DC
:1011DC001344233B1F2202FA03F3DB4319403B6801
:1011EC0018683B685A6813469B001344233B00FA6B
:1011FC0003F27B681B680A431A631BE07B681B685D
:10120C00D96A3B685A6813469B001344413B1F2222
:10121C0002FA03F3DB4319403B6818683B685A68D1
:10122C0013469B001344413B00FA03F27B681B6896
:10123C000A43DA623B681B68092B1CD97B681B6864
:10124C00D9683B681A6813465B0013441E3B07229F
:10125C0002FA03F3DB4319403B6898683B681A6851
:10126C0013465B0013441E3B00FA03F27B681B68B9
:10127C000A43DA6019E07B681B6819693B681A68D5
:10128C0013465B001344072202FA03F3DB431940B5
:10129C003B6898683B681A6813465B00134400FA75
:1012AC0003F27B681B680A431A613B681B68102BAE
:1012BC0003D03B681B68112B32D17B681B681D4A1D
:1012CC00934225D17B681B689B6803F40003002BB9
:1012DC0026D17B681B689A687B681B6842F4000205
:1012EC009A603B681B68102B1AD1134B1B68134A6E
:1012FC00A2FB03239A0C13469B0013445B00BB60B8
:10130C0002E0BB68013BBB60BB68002BF9D107E076
:10131C007B689B6A43F020027B689A620123FB7313
:10132C007B68002283F82420FB7B18461437BD46CB
:10133C0080BC7047002401400000002083DE1B436A
:10134C0080B584B000AF78600023FB600023BB60E5
:10135C007B681B689B6803F00103012B40D07B6802
:10136C001B689A687B681B6842F001029A601F4BED
:10137C001B681F4AA2FB03239B0CBB6002E0BB68EB
:10138C00013BBB60BB68002BF9D1FFF76DFBF8602C
:10139C001FE0FFF769FB0246FB68D31A022B18D932
:1013AC007B681B689B6803F00103012B11D07B68E1
:1013BC009B6A43F010027B689A627B68DB6A43F09D
:1013CC0001027B68DA627B68002283F82420012307
:1013DC0007E07B681B689B6803F00103012BD8D1E5
:1013EC00002318461037BD4680BD00BF000000200A
:1013FC0083DE1B4380B584B000AF78600023FB60B4
:10140C007B681B689B6803F00103012B2ED17B6862
:10141C001B689A687B681B6822F001029A60FFF7D0
:10142C0023FBF8601BE0FFF71FFB0246FB68D31A97
:10143C00022B14D97B681B689B6803F00103012BFA
:10144C000DD17B689B6A43F010027B689A627B68C3
:10145C00DB6A43F001027B68DA62012307E07B68F8
:10146C001B689B6803F00103012BDCD0002318469A
:10147C001037BD4680BD80B584B000AF78607B6806
:10148C005B6AFB60FB689B6A03F05003002B27D15F
:10149C00FB689B6A43F40072FB689A62FB681B68EA
:1014AC009B6803F46023B3F5602F15D1FB681B7B9D
:1014BC00002B11D1FB689B6A23F48072FB689A6243
:1014CC00FB689B6A03F48053002B05D1FB689B6A75
:1014DC0043F00102FB689A62F868FFF719F904E01F
:1014EC00FB681B6A1B6B7868984700BF1037BD46BA
:1014FC0080BD80B584B000AF78607B685B6AFB60B0
:10150C00F868FFF70AFE00BF1037BD4680BD80B5F6
:10151C0084B000AF78607B685B6AFB60FB689B6A99
:10152C0043F04002FB689A62FB68DB6A43F00402FA
:10153C00FB68DA62F868FFF702FE00BF1037BD46A1
:10154C0080BD80B483B000AF786000BF0C37BD465F
:10155C0080BC704780B485B000AF78607B6803F0C6
:10156C000703FB600C4BDB68BB60BA684FF6FF03EC
:10157C001340BB60FB681A02BB68134343F0BF63A4
:10158C0043F40033BB60044ABB68D36000BF14371C
:10159C00BD4680BC704700BF00ED00E080B400AFDA
:1015AC00044BDB681B0A03F007031846BD4680BCDE
:1015BC00704700BF00ED00E080B483B000AF03467D
:1015CC00FB7197F90730002B0BDBFB7903F01F0243
:1015DC00064997F907305B09012000FA02F241F83D
:1015EC00232000BF0C37BD4680BC704700E100E0F3
:1015FC0080B483B000AF03463960FB7197F90730B4
:10160C00002B0ADB3B68DAB20C4997F90730120160
:10161C00D2B20B4483F800230AE03B68DAB20849E3
:10162C00FB7903F00F03043B1201D2B20B441A7680
:10163C0000BF0C37BD4680BC704700BF00E100E026
:10164C0000ED00E080B489B000AFF860B9607A605A
:10165C00FB6803F00703FB61FB69C3F10703042B71
:10166C0028BF0423BB61FB690433062B02D9FB6939
:10167C00033B00E000237B614FF0FF32BB6902FAB1
:10168C0003F3DA43BB681A407B699A404FF0FF3191
:10169C007B6901FA03F3D9437B680B40134318466B
:1016AC002437BD4680BC704780B582B000AF7860EF
:1016BC007B68013BB3F1807F01D301230FE00A4A21
:1016CC007B68013B53600F214FF0FF30FFF790FF19
:1016DC00054B00229A60044B07221A60002318461F
:1016EC000837BD4680BD00BF10E000E080B582B079
:1016FC0000AF78607868FFF72DFF00BF0837BD4654
:10170C0080BD80B586B000AF0346B9607A60FB73CC
:10171C0000237B61FFF742FF78617A68B9687869CA
:10172C00FFF790FF024697F90F3011461846FFF766
:10173C005FFF00BF1837BD4680BD80B582B000AFDB
:10174C000346FB7197F907301846FFF735FF00BFCA
:10175C000837BD4680BD80B582B000AF7860786830
:10176C00FFF7A2FF034618460837BD4680BD0000B0
:10177C0080B485B000AF78600023FB607B68002BE1
:10178C0001D1012343E07B681B681A46224B1344AA
:10179C00224AA2FB03231B099A007B681A647B680C
:1017AC001F4ADA637B68022283F821207B681B685E
:1017BC001B68FB60FB6823F47F5323F03003FB6052
:1017CC007B685A687B689B681A437B68DB681A43A2
:1017DC007B681B691A437B685B691A437B689B694E
:1017EC001A437B68DB691343FA681343FB607B681D
:1017FC001B68FA681A607B6800229A637B68012276
:10180C0083F821207B68002283F8202000231846CF
:10181C001437BD4680BC7047F8FFFDBFCDCCCCCC97
:10182C000000024080B586B000AFF860B9607A6005
:10183C003B600023FB75FB6893F82030012B01D132
:10184C0002234BE0FB68012283F82020FB6893F80D
:10185C002130DBB2012B3AD1FB68022283F8212024
:10186C00FB6800229A63FB681B681A68FB681B689C
:10187C0022F001021A603B687A68B968F86800F0D7
:10188C0037F9FB68DB6A002B08D0FB681B681A6809
:10189C00FB681B6842F00E021A600FE0FB681B68C5
:1018AC001A68FB681B6822F004021A60FB681B684C
:1018BC001A68FB681B6842F00A021A60FB681B6816
:1018CC001A68FB681B6842F001021A6005E0FB68AD
:1018DC00002283F820200223FB75FB7D1846183765
:1018EC00BD4680BD80B584B000AF78607B68DB6B93
:1018FC001B68FB607B681B681B68BB607B681B6C90
:10190C0004229A40FB681340002B4FD0BB6803F0B5
:10191C000403002B4AD07B681B681B6803F0200370
:10192C00002B07D17B681B681A687B681B6822F048
:10193C0004021A607B681B68664A934229D07B6854
:10194C001B68654A934222D07B681B68634A9342AA
:10195C001AD07B681B68624A934212D07B681B6862
:10196C00604A93420AD07B681B685F4A934202D15B
:10197C004FF480030EE04FF080630BE04FF48023B4
:10198C0008E04FF4804305E04FF4806302E040230D
:10199C0000E00423554A53607B68DB6A002B00F09F
:1019AC0094807B68DB6A786898478EE07B681B6C58
:1019BC0002229A40FB681340002B56D0BB6803F000
:1019CC000203002B51D07B681B681B6803F02003BB
:1019DC00002B0BD17B681B681A687B681B6822F094
:1019EC000A021A607B68012283F821207B681B683D
:1019FC00384A934229D07B681B68374A934222D0DD
:101A0C007B681B68354A93421AD07B681B68344A42
:101A1C00934212D07B681B68324A93420AD07B688F
:101A2C001B68314A934202D14FF400130EE04FF081
:101A3C0000730BE04FF4003308E04FF4005305E063
:101A4C004FF4007302E0202300E00223274A536086
:101A5C007B68002283F820207B689B6A002B34D0A3
:101A6C007B689B6A786898472FE07B681B6C082220
:101A7C009A40FB681340002B28D0BB6803F0080386
:101A8C00002B23D07B681B681A687B681B6822F0CC
:101A9C000E021A607B681A6C7B68DB6B012101FA01
:101AAC0002F25A607B6801229A637B68012283F8F8
:101ABC0021207B68002283F820207B681B6B002B85
:101ACC0004D07B681B6B7868984700BF00BF103749
:101ADC00BD4680BD080002401C00024030000240A0
:101AEC0044000240580002406C00024000000240DA
:101AFC0080B485B000AFF860B9607A603B60FB6879
:101B0C001A6CFB68DB6B012101FA02F25A60FB686C
:101B1C001B683A685A60FB685B68102B08D1FB683D
:101B2C001B687A689A60FB681B68BA68DA6007E021
:101B3C00FB681B68BA689A60FB681B687A68DA6095
:101B4C0000BF1437BD4680BC7047000080B48BB01A
:101B5C0000AF7860396000237B6200233B6269E14F
:101B6C0001227B6A02FA03F3FB613B681B68FA698A
:101B7C001340BB61BA69FB699A4240F058813B68DB
:101B8C005B689A4A93425ED0984A934275D8984AB9
:101B9C00934258D0964A93426FD8964A934252D069
:101BAC00944A934269D8944A93424CD0924A9342B5
:101BBC0063D8924A934246D0904A93425DD8122BF6
:101BCC002AD8122B59D801A252F823F0531C000822
:101BDC002D1C00083F1C0008811C0008871C0008F5
:101BEC00871C0008871C0008871C0008871C00083D
:101BFC00871C0008871C0008871C0008871C00082D
:101C0C00871C0008871C0008871C0008871C00081C
:101C1C00351C0008491C0008794A934213D02CE06B
:101C2C003B68DB683B6229E03B68DB6804333B6262
:101C3C0024E03B68DB6808333B621FE03B68DB68F1
:101C4C000C333B621AE03B689B68002B02D10423E7
:101C5C003B6213E03B689B68012B05D108233B6278
:101C6C007B68FA691A6109E008233B627B68FA69B0
:101C7C005A6103E000233B6200E000BFBB69FF2B0D
:101C8C0001D87B6801E07B6804337B61BB69FF2B67
:101C9C0002D87B6A9B0002E07B6A083B9B003B619D
:101CAC007B691A680F213B6901FA03F3DB431A4085
:101CBC00396A3B6901FA03F31A437B691A603B6882
:101CCC005B6803F08053002B00F0B1804D4B9B6997
:101CDC004C4A43F0010393614A4B9B6903F00103A7
:101CEC00BB60BB68484A7B6A9B08023352F82330BE
:101CFC00FB607B6A03F003039B000F2202FA03F3E1
:101D0C00DB43FA681340FB607B68404A934213D074
:101D1C007B683F4A93420DD07B683E4A934207D082
:101D2C007B683D4A934201D1032306E0042304E07F
:101D3C00022302E0012300E000237A6A02F003028E
:101D4C0092009340FA681343FB602F497B6A9B080F
:101D5C000233FA6841F823203B685B6803F4801374
:101D6C00002B06D02D4B9A682C49BB6913438B6012
:101D7C0006E02A4B9A68BB69DB43284913408B6009
:101D8C003B685B6803F40013002B06D0234BDA6826
:101D9C002249BB691343CB6006E0204BDA68BB6970
:101DAC00DB431E491340CB603B685B6803F4003394
:101DBC00002B06D0194B5A681849BB6913434B606A
:101DCC0006E0164B5A68BB69DB43144913404B6061
:101DDC003B685B6803F48033002B21D00F4B1A68EF
:101DEC000E49BB6913430B6021E000BF00003210A9
:101DFC000000311000002210000021100000121011
:101E0C0000001110001002400000014000080140C9
:101E1C00000C01400010014000140140000401407E
:101E2C000B4B1A68BB69DB43094913400B607B6A97
:101E3C0001337B623B681A687B6A22FA03F3002B3E
:101E4C007FF48EAE00BF00BF2C37BD4680BC704700
:101E5C000004014080B584B000AF78607B68002B33
:101E6C0001D101232BE17B6893F83D30DBB2002BD1
:101E7C0006D17B68002283F83C207868FEF7A6FB2D
:101E8C007B68242283F83D207B681B681A687B687A
:101E9C001B6822F001021A607B681B681A687B6859
:101EAC001B6842F400421A607B681B681A687B68E6
:101EBC001B6822F400421A6001F032F8F8607B686B
:101ECC005B68814A934207D8FB68804A934294BF6F
:101EDC0001230023DBB206E0FB687D4A934294BFEA
:101EEC0001230023DBB2002B01D00123E7E0FB68C8
:101EFC00784AA2FB03239B0CBB607B681B685B6866
:101F0C0023F03F017B681B68BA680A435A607B6800
:101F1C001B681B6A23F03F017B685B686A4A93422B
:101F2C0002D8BB68013309E0BB684FF4967202FB20
:101F3C0003F3694AA2FB03239B0901337A681268F5
:101F4C000B4313627B681B68DB6923F44F4222F05E
:101F5C00FF027B685B685C498B4219D8FB68591E91
:101F6C007B685B685B00B1FBF3F3591C40F6FC73B8
:101F7C000B40002B0AD0FB68591E7B685B685B002A
:101F8C00B1FBF3F30133C3F30B0351E004234FE034
:101F9C007B689B68002B11D1FB68581E7B685968C5
:101FAC000B465B000B44B0FBF3F30133C3F30B03A1
:101FBC00002B0CBF01230023DBB212E0FB68581E80
:101FCC007B6859680B469B000B4499000B44B0FB93
:101FDC00F3F30133C3F30B03002B0CBF01230023DA
:101FEC00DBB2002B01D0012322E07B689B68002B25
:101FFC000ED1FB68581E7B6859680B465B000B447E
:10200C00B0FBF3F30133C3F30B0343F400430FE0D2
:10201C00FB68581E7B6859680B469B000B44990063
:10202C000B44B0FBF3F30133C3F30B0343F4404312
:10203C00796809681343CB617B681B681B6823F0C4
:10204C00C0017B68DA697B681B6A1A437B681B6872
:10205C000A431A607B681B689B6823F4034323F0D4
:10206C00FF037A6811697A68D26811437A6812683A
:10207C000B4393607B681B68DB6823F0FF017B6874
:10208C005A697B689B691A437B681B680A43DA6050
:10209C007B681B681A687B681B6842F001021A6037
:1020AC007B6800221A647B68202283F83D207B68C1
:1020BC0000221A637B68002283F83E200023184616
:1020CC001037BD4680BD00BFA08601007F841E0076
:1020DC00FF083D0083DE1B43D34D621080B588B0F2
:1020EC0002AFF8607A601A460B467B8113463B813F
:1020FC00FEF7BAFC7861FB6893F83D30DBB2202B1D
:10210C0040F0E0807B690093192301227049F86844
:10211C0000F064F90346002B01D00223D3E0FB68E6
:10212C0093F83C30012B01D10223CCE0FB68012257
:10213C0083F83C20FB681B681B6803F00103012B30
:10214C0007D0FB681B681A68FB681B6842F0010229
:10215C001A60FB681B681A68FB681B6822F4006233
:10216C001A60FB68212283F83D20FB68102283F85B
:10217C003E20FB6800221A64FB687A685A62FB688E
:10218C003A895A85FB685B8D9AB2FB681A85FB68A5
:10219C00504ADA6279897B693A6AF86800F09CF8EF
:1021AC000346002B01D001238DE000233B61FB682B
:1021BC001B685B693B61FB681B689B693B613B6906
:1021CC0066E07A69396AF86800F022FA0346002B57
:1021DC000DD0FB681B6C042B07D1FB681B681A68BD
:1021EC00FB681B6842F400721A6001236BE0FB6809
:1021FC005B6A1A78FB681B681A61FB685B6A5A1C7D
:10220C00FB685A62FB685B8D9BB2013B9AB2FB6820
:10221C005A85FB681B8D013B9AB2FB681A85FB68DB
:10222C001B685B6903F00403042B1BD1FB681B8D3B
:10223C00002B17D0FB685B6A1A78FB681B681A6165
:10224C00FB685B6A5A1CFB685A62FB685B8D9BB22D
:10225C00013B9AB2FB685A85FB681B8D013B9AB215
:10226C00FB681A857A69396AF86800F019FA03462E
:10227C00002B0DD0FB681B6C042B07D1FB681B6873
:10228C001A68FB681B6842F400721A6001231AE09A
:10229C00FB681B8D002B94D1FB681B681A68FB68CC
:1022AC001B6842F400721A60FB68202283F83D2000
:1022BC00FB68002283F83E20FB68002283F83C2058
:1022CC00002300E0022318461837BD4680BD00BF2E
:1022DC00020010000000FFFF80B588B002AFF8606C
:1022EC007A603B600B467B81FB68DB6A7B617B69B8
:1022FC00082B06D07B69012B03D07B6913F5803F3B
:10230C0008D1FB681B681A68FB681B6842F4807272
:10231C001A600BE0FB681B6B122B07D1FB681B6868
:10232C001A68FB681B6842F480721A603B68009361
:10233C007B6800224FF00111F86800F04FF803465B
:10234C00002B0DD0FB681B681B6803F48073B3F57E
:10235C00807F03D1FB684FF400721A64032335E0CD
:10236C00FB681B69B3F5804F08D17B89DBB21A4639
:10237C00FB681B6802F0FE021A611BE07B89DB1113
:10238C00DBB203F00603DBB263F00F03DAB2FB68D7
:10239C001B681A613B687A680E49F86800F098F877
:1023AC000346002B01D0012310E07B89DAB2FB68D5
:1023BC001B681A613B687A680749F86800F088F86E
:1023CC000346002B01D0012300E0002318461837E8
:1023DC00BD4680BD080001000200010080B584B03C
:1023EC0000AFF860B9603B601346FB7148E03B6896
:1023FC00B3F1FF3F44D0FEF737FB0246BB69D31A5B
:10240C003A689A4202D33B68002B39D1BB681B0C4B
:10241C00DBB2012B0DD1FB681B685B69DA43BB682F
:10242C0013409BB2002B0CBF01230023DBB21A46D6
:10243C000CE0FB681B689B69DA43BB6813409BB2DA
:10244C00002B0CBF01230023DBB21A46FB799A4206
:10245C0016D1FB6800221A63FB68202283F83D200A
:10246C00FB68002283F83E20FB681B6C43F02002C3
:10247C00FB681A64FB68002283F83C20012323E0EC
:10248C00BB681B0CDBB2012B0DD1FB681B685B69B5
:10249C00DA43BB6813409BB2002B0CBF0123002313
:1024AC00DBB21A460CE0FB681B689B69DA43BB681D
:1024BC0013409BB2002B0CBF01230023DBB21A4646
:1024CC00FB799A4293D0002318461037BD4680BD45
:1024DC0080B584B000AFF860B9607A603B6071E0A1
:1024EC00FB681B685B6903F48063B3F5806F23D1D1
:1024FC00FB681B681A68FB681B6842F400721A6060
:10250C00FB681B686FF480625A61FB6800221A63D7
:10251C00FB68202283F83D20FB68002283F83E20D4
:10252C00FB681B6C43F00402FB681A64FB68002216
:10253C0083F83C20012367E07B68B3F1FF3F41D077
:10254C00FEF792FA02463B68D31A7A689A4202D393
:10255C007B68002B36D1BB681B0CDBB2012B0CD17A
:10256C00FB681B685B69DA43BB6813409BB2002BAA
:10257C0014BF01230023DBB20BE0FB681B689B69D3
:10258C00DA43BB6813409BB2002B14BF012300231A
:10259C00DBB2002B16D0FB6800221A63FB682022EA
:1025AC0083F83D20FB68002283F83E20FB681B6CFF
:1025BC0043F02002FB681A64FB68002283F83C207D
:1025CC00012321E0BB681B0CDBB2012B0CD1FB6897
:1025DC001B685B69DA43BB6813409BB2002B14BFCA
:1025EC0001230023DBB20BE0FB681B689B69DA4319
:1025FC00BB6813409BB2002B14BF01230023DBB23A
:10260C00002B7FF46DAF002318461037BD4680BDFC
:10261C0080B584B000AFF860B9607A6034E0F868D7
:10262C0000F086F80346002B01D0012334E0BB6890
:10263C00B3F1FF3F28D0FEF717FA02467B68D31A96
:10264C00BA689A4202D3BB68002B1DD1FB681B6889
:10265C005B6903F08003802B16D0FB6800221A63A1
:10266C00FB68202283F83D20FB68002283F83E2083
:10267C00FB681B6C43F02002FB681A64FB680022A9
:10268C0083F83C20012307E0FB681B685B6903F0BF
:10269C008003802BC3D1002318461037BD4680BD64
:1026AC0080B584B000AFF860B9607A6034E0F86847
:1026BC0000F03EF80346002B01D0012334E0BB6848
:1026CC00B3F1FF3F28D0FEF7CFF902467B68D31A4F
:1026DC00BA689A4202D3BB68002B1DD1FB681B68F9
:1026EC005B6903F00403042B16D0FB6800221A6309
:1026FC00FB68202283F83D20FB68002283F83E20F3
:10270C00FB681B6C43F02002FB681A64FB68002218
:10271C0083F83C20012307E0FB681B685B6903F02E
:10272C000403042BC3D1002318461037BD4680BDCB
:10273C0080B483B000AF78607B681B685B6903F47E
:10274C008063B3F5806F1BD17B681B686FF480626C
:10275C005A617B6800221A637B68202283F83D2033
:10276C007B68002283F83E207B681B6C43F00402DC
:10277C007B681A647B68002283F83C20012300E00C
:10278C00002318460C37BD4680BC704780B586B018
:10279C0000AF78607B68002B01D1012372E27B686B
:1027AC001B6803F00103002B00F08780924B5B68E1
:1027BC0003F00C03042B0CD08F4B5B6803F00C0361
:1027CC00082B12D18C4B5B6803F48033B3F5803F3C
:1027DC000BD1894B1B6803F40033002B6CD07B6846
:1027EC005B68002B68D101234CE27B685B68B3F516
:1027FC00803F06D1804B1B687F4A43F480331360C3
:10280C002EE07B685B68002B0CD17B4B1B687A4AF3
:10281C0023F480331360784B1B68774A23F48023AE
:10282C0013601DE07B685B68B3F5A02F0CD1724B75
:10283C001B68714A43F4802313606F4B1B686E4A0C
:10284C0043F4803313600BE06B4B1B686A4A23F430
:10285C0080331360684B1B68674A23F48023136032
:10286C007B685B68002B13D0FEF7FEF8386108E03C
:10287C00FEF7FAF802463B69D31A642B01D90323FD
:10288C0000E25D4B1B6803F40033002BF0D014E026
:10289C00FEF7EAF8386108E0FEF7E6F802463B6915
:1028AC00D31A642B01D90323ECE1534B1B6803F4BB
:1028BC000033002BF0D100E000BF7B681B6803F0F5
:1028CC000203002B63D04C4B5B6803F00C03002B12
:1028DC000BD0494B5B6803F00C03082B1CD1464B07
:1028EC005B6803F48033002B16D1434B1B6803F059
:1028FC000203002B05D07B681B69012B01D001233F
:10290C00C0E13D4B1B6823F0F8027B685B69DB0080
:10291C00394913430B603AE07B681B69002B20D0CC
:10292C00364B01221A60FEF79FF8386108E0FEF77B
:10293C009BF802463B69D31A022B01D90323A1E170
:10294C002D4B1B6803F00203002BF0D02A4B1B68A5
:10295C0023F0F8027B685B69DB00274913430B60AB
:10296C0015E0264B00221A60FEF77EF8386108E06D
:10297C00FEF77AF802463B69D31A022B01D90323DE
:10298C0080E11D4B1B6803F00203002BF0D17B6828
:10299C001B6803F00803002B3AD07B689B69002B63
:1029AC0019D0174B01221A60FEF75EF8386108E067
:1029BC00FEF75AF802463B69D31A022B01D90323BE
:1029CC0060E10D4B5B6A03F00203002BF0D0012099
:1029DC0000F0BAFA1CE00A4B00221A60FEF744F829
:1029EC0038610FE0FEF740F802463B69D31A022B20
:1029FC0008D9032346E100BF001002400000424208
:102A0C0080044242924B5B6A03F00203002BE9D133
:102A1C007B681B6803F00403002B00F0A6800023E6
:102A2C00FB758B4BDB6903F08053002B0DD1884B6E
:102A3C00DB69874A43F08053D361854BDB6903F034
:102A4C008053BB60BB680123FB75824B1B6803F48E
:102A5C008073002B18D17F4B1B687E4A43F4807324
:102A6C001360FEF701F8386108E0FDF7FDFF024640
:102A7C003B69D31A642B01D9032303E1754B1B6803
:102A8C0003F48073002BF0D07B68DB68012B06D13C
:102A9C006F4B1B6A6E4A43F0010313622DE07B6897
:102AAC00DB68002B0CD16A4B1B6A694A23F00103CB
:102ABC001362674B1B6A664A23F0040313621CE023
:102ACC007B68DB68052B0CD1614B1B6A604A43F0B9
:102ADC00040313625E4B1B6A5D4A43F001031362ED
:102AEC000BE05B4B1B6A5A4A23F001031362584BF1
:102AFC001B6A574A23F0040313627B68DB68002BC4
:102B0C0015D0FDF7B1FF38610AE0FDF7ADFF0246C5
:102B1C003B69D31A41F28832934201D90323B1E0C5
:102B2C004B4B1B6A03F00203002BEED014E0FDF7B5
:102B3C009BFF38610AE0FDF797FF02463B69D31A09
:102B4C0041F28832934201D903239BE0404B1B6A2C
:102B5C0003F00203002BEED1FB7D012B05D13C4B86
:102B6C00DB693B4A23F08053D3617B68DB69002B24
:102B7C0000F08780364B5B6803F00C03082B61D0A8
:102B8C007B68DB69022B46D1334B00221A60FDF7C0
:102B9C006BFF386108E0FDF767FF02463B69D31A0B
:102BAC00022B01D903236DE0294B1B6803F0007342
:102BBC00002BF0D17B681B6AB3F5803F08D1244B06
:102BCC005B6823F400327B689B68214913434B609C
:102BDC001F4B5B6823F474127B68196A7B685B6A11
:102BEC000B431B4913434B601B4B01221A60FDF72F
:102BFC003BFF386108E0FDF737FF02463B69D31A0B
:102C0C00022B01D903233DE0114B1B6803F0007329
:102C1C00002BF0D035E0104B00221A60FDF724FF9A
:102C2C00386108E0FDF720FF02463B69D31A022BFE
:102C3C0001D9032326E0064B1B6803F00073002B1D
:102C4C00F0D11EE07B68DB69012B07D1012319E071
:102C5C000010024000700040600042420B4B5B6869
:102C6C00FB60FB6803F480327B681B6A9A4206D1D6
:102C7C00FB6803F470127B685B6A9A4201D00123F3
:102C8C0000E0002318461837BD4680BD00100240F6
:102C9C0080B584B000AF786039607B68002B01D1BF
:102CAC000123D0E06A4B1B6803F007033A689A4291
:102CBC0010D9674B1B6823F0070265493B68134327
:102CCC000B60634B1B6803F007033A689A4201D010
:102CDC000123B8E07B681B6803F00203002B20D0B3
:102CEC007B681B6803F00403002B05D0594B5B6811
:102CFC00584A43F4E06353607B681B6803F0080395
:102D0C00002B05D0534B5B68524A43F4605353601D
:102D1C00504B5B6823F0F0027B689B684D49134372
:102D2C004B607B681B6803F00103002B40D07B6871
:102D3C005B68012B07D1474B1B6803F40033002B56
:102D4C0015D101237FE07B685B68022B07D1414BD7
:102D5C001B6803F00073002B09D1012373E03D4B7A
:102D6C001B6803F00203002B01D101236BE0394BEC
:102D7C005B6823F003027B685B68364913434B6046
:102D8C00FDF772FEF8600AE0FDF76EFE0246FB6886
:102D9C00D31A41F28832934201D9032353E02D4BCD
:102DAC005B6803F00C027B685B689B009A42EBD17A
:102DBC00274B1B6803F007033A689A4210D2244B46
:102DCC001B6823F0070222493B6813430B60204B1E
:102DDC001B6803F007033A689A4201D0012332E0E2
:102DEC007B681B6803F00403002B08D0194B5B684D
:102DFC0023F4E0627B68DB68164913434B607B6805
:102E0C001B6803F00803002B09D0124B5B6823F4FA
:102E1C0060527B681B69DB000E4913434B6000F06A
:102E2C0021F802460B4B5B681B0903F00F030A49A0
:102E3C00CB5C22FA03F3094A1360094B1B68184652
:102E4C00FDF7D0FD002318461037BD4680BD00BFEE
:102E5C000020024000100240903A000800000020C0
:102E6C000400002080B487B000AF0023FB60002377
:102E7C00BB6000237B6100237B6000233B611E4B06
:102E8C005B68FB60FB6803F00C03042B02D0082B7F
:102E9C0003D027E0194B3B6127E0FB689B0C03F048
:102EAC000F03174AD35C7B60FB6803F48033002B61
:102EBC0010D0114B5B685B0C03F00103114AD35C1F
:102ECC00BB607B680D4A03FB02F2BB68B2FBF3F3F9
:102EDC007B6104E07B680C4A02FB03F37B617B693A
:102EEC003B6102E0054B3B6100BF3B6918461C3758
:102EFC00BD4680BC704700BF0010024000127A0033
:102F0C00A83A0008B83A000800093D0080B400AFA8
:102F1C00024B1B681846BD4680BC70470000002061
:102F2C0080B500AFFFF7F2FF0246054B5B681B0A4A
:102F3C0003F007030349CB5C22FA03F3184680BD68
:102F4C0000100240A03A000880B485B000AF786051
:102F5C000A4B1B680A4AA2FB03235B0A7A6802FB32
:102F6C0003F3FB6000BFFB685A1EFA60002BF9D11B
:102F7C0000BF00BF1437BD4680BC70470000002066
:102F8C00D34D621080B586B000AF786000233B61F2
:102F9C000023FB607B681B6803F00103002B7DD0D2
:102FAC000023FB754F4BDB6903F08053002B0DD1D5
:102FBC004C4BDB694B4A43F08053D361494BDB6983
:102FCC0003F08053BB60BB680123FB75464B1B6849
:102FDC0003F48073002B18D1434B1B68424A43F413
:102FEC0080731360FDF740FD386108E0FDF73CFD90
:102FFC0002463B69D31A642B01D903236DE03A4B8B
:10300C001B6803F48073002BF0D0364B1B6A03F45F
:10301C004073FB60FB68002B2ED07B685B6803F46D
:10302C004073FA689A4227D02E4B1B6A23F44073E4
:10303C00FB602E4B01221A602C4B00221A60294A8D
:10304C00FB681362FB6803F00103002B14D0FDF73F
:10305C000BFD38610AE0FDF707FD02463B69D31A08
:10306C0041F28832934201D9032336E01D4B1B6A8F
:10307C0003F00203002BEED01A4B1B6A23F44072B0
:10308C007B685B68174913430B62FB7D012B05D1F1
:10309C00144BDB69134A23F08053D3617B681B68A4
:1030AC0003F00203002B08D00E4B5B6823F4404264
:1030BC007B689B680B4913434B607B681B6803F070
:1030CC001003002B08D0074B5B6823F480027B684D
:1030DC00DB68044913434B60002318461837BD4680
:1030EC0080BD00BF0010024000700040400442420E
:1030FC000EB46FF0004100B59CB01DAB0290069071
:10310C00079104910848094953F8042B059100686C
:10311C0002A9019300F09AF80022029B1A701CB0CD
:10312C005DF804EB03B07047580000200802FFFF65
:10313C0003460244934200D1704703F8011BF9E7A0
:10314C00014B1868704700BF5800002070B500266E
:10315C000C4D0D4C641BA410A64209D100F07AFC56
:10316C0000260A4D0A4C641BA410A64205D170BD62
:10317C0055F8043B98470136EEE755F8043B984761
:10318C000136F2E7F03A0008F03A0008F03A00088D
:10319C00F43A0008704770472DE9F0471F468E68D7
:1031AC008246BE420C4690460B682CD88A8912F493
:1031BC00906F26D06569096905EB4505A3EB0109FC
:1031CC0005EBD5757B1C4B446D109D4238BF1D46DD
:1031DC00530527D5294600F057F9064660B34A46F1
:1031EC00216900F0D9FBA38923F4906343F0800399
:1031FC00A38126614E4426603E466561A5EB090518
:10320C00A560BE4200D93E4632464146206800F0D9
:10321C008AFB0020A3689B1BA360236833442360B4
:10322C00BDE8F0872A4600F04FFB06460028E0D1A7
:10323C005046216900F0BEFB0C23CAF80030A3896C
:10324C004FF0FF3043F04003A381E9E72DE9F04F45
:10325C0098468B8907461B060D4614469DB00ED525
:10326C000B6963B9402100F00FF92860286120B97F
:10327C000C233B604FF0FF30D0E040236B61002308
:10328C00099320238DF8293030234FF00109CDF814
:10329C000C80DFF8A0818DF82A3023469A4613F86B
:1032AC00012B0AB1252AF9D1BAEB040B0BD05B46E2
:1032BC00224629463846FFF76FFF013000F0A980FF
:1032CC00099A5A4409929AF80030002B00F0A18018
:1032DC0000234FF0FF32CDE905230AF1010A0493D4
:1032EC0007938DF853301A935446052214F8011B9A
:1032FC00504800F043FB049AD8B9D00644BF2023B1
:10330C008DF85330110744BF2B238DF853309AF8A6
:10331C0000302A2B15D0544600204FF00A0C079A87
:10332C00214611F8013B303B092B4DD9B0B1079226
:10333C0014E0A0EB080309FA03F31343A246049329
:10334C00D2E7039B191D1B680391002BBBBF5B428B
:10335C0042F0020207930793B8BF049223782E2BF6
:10336C000CD163782A2B34D1039B02341A1D1B68B1
:10337C000392002BB8BF4FF0FF330593DFF8B8A0D2
:10338C0003225046217800F0F9FA38B14022049B10
:10339C00A0EB0A00824013430134049314F8011B80
:1033AC00062226488DF8281000F0E8FA002838D0BC
:1033BC00234B1BBB039B073323F0070308330393F7
:1033CC00099B3344099368E70C4601200CFB02323D
:1033DC00A6E700234FF00A0C19460134059320464A
:1033EC0010F8012B303A092A03D9002BC6D00591CD
:1033FC00C4E7044601230CFB0121F0E703AB009367
:10340C002A4638460F4B04A9AFF30080421C0646EF
:10341C00D6D1AB895B063FF52DAF09981DB0BDE841
:10342C00F08F03AB00932A463846064B04A900F0F4
:10343C001DF9EBE7BA3A0008C03A0008C43A000894
:10344C0000000000A531000870B50E4E0C46316826
:10345C00054611B900F082FA30602146284600F08A
:10346C007DFA431C0AD0C41C24F00304A04207D0EC
:10347C00211A284600F072FA013001D14FF0FF34C6
:10348C00204670BDB00200202DE9F843CD1C25F07C
:10349C00030508350C2D38BF0C25002D074601DB24
:1034AC00A94205D90C2300263B603046BDE8F883C1
:1034BC00DFF8D08000F0FCF9D8F800301C465CBB7B
:1034CC0029463846FFF7C0FF431C044655D1D8F8AF
:1034DC0000402646002E45D1002C48D023683146AA
:1034EC00384604EB030900F039FA81453FD12168D5
:1034FC0038466D1A2946FFF7A7FF013037D02368ED
:10350C002B442360D8F80030002B38D05A68A242E4
:10351C002BD100225A600FE02268521B1FD40B2AB9
:10352C0017D96119A342256018BF5960636808BF99
:10353C00C8F8001062514B60384604F10B0600F0DD
:10354C00BDF926F00706231DF21AAED09B1BA35023
:10355C00ABE7A3426268DDD1C8F80020ECE7234654
:10356C006468ACE734467668B4E71346CCE70C23C2
:10357C0038463B6000F0A2F997E72560DCE75B601A
:10358C00FFDE00BFAC0200202DE9F047164699463D
:10359C008A680B6907469342B8BF1346336091F8AB
:1035AC0043200C46DDF820800AB1013333602368D8
:1035BC00990642BF336802333360256815F006055F
:1035CC0006D104F1190AE36832689B1AAB422BDC72
:1035DC0094F84320131E226818BF0123920630D49E
:1035EC004946384604F14302C047013023D02368D2
:1035FC00226903F00603042B14BF002533684FF037
:10360C00000608BFE56804F11A0408BFED1A54F867
:10361C00123C08BF25EAE5759342C4BF9B1AED180E
:10362C00B5421AD1002008E00123524649463846DB
:10363C00C047013003D14FF0FF30BDE8F0870135B2
:10364C00C1E73020E11881F843005A1C94F845106A
:10365C002244023382F84310C2E701232246494632
:10366C003846C0470130E6D00136D9E72DE9FF478F
:10367C000F7E9146782F80460C469A460C9D01F1A0
:10368C00430207D8622F0AD8002F00F0D580582F9C
:10369C0000F0C18004F1420584F842703AE0A7F1D1
:1036AC006303152BF6D801A151F823F0113700084C
:1036BC0025370008A1360008A1360008A1360008FD
:1036CC00A136000825370008A1360008A1360008ED
:1036DC00A1360008A13600082B3800085137000825
:1036EC00E5370008A1360008A13600084D3800085F
:1036FC00A136000851370008A1360008A136000891
:10370C00ED3700082B681A1D1B682A6004F142056E
:10371C0084F842300123A0E020682B68070603F1EF
:10372C000401296001D51E6803E04606FBD5B3F9F8
:10373C000060002E03DA2D23764284F843300A23EE
:10374C00594812E02B682068191D2960050601D51F
:10375C001E6802E04106FBD51E886F2F0CBF0823A4
:10376C000A235148002184F843106568002DA8BF36
:10377C002168A560A4BF21F0040121600EB9002DC1
:10378C004BD01546B6FBF3F103FB1167C75D05F88B
:10379C00017D3746BB420E46F4D9082B0BD123686A
:1037AC00DE0708D5236961689942DEBF302305F82E
:1037BC00013C05F1FF35521B22614B462146404628
:1037CC00CDF800A003AAFFF7DFFE01304AD14FF07D
:1037DC00FF3004B0BDE8F087236843F0200323607A
:1037EC007827324884F84570236829681F0651F8F9
:1037FC00046B02D45F0648BFB6B2DF0748BF43F084
:10380C002003296048BF23601EB9236823F02003DE
:10381C0023601023A6E72448E4E71546BDE72B6890
:10382C002668181D6169286035061B6801D519606A
:10383C0002E07006FBD51980002315462361BCE716
:10384C002B6800211A1D2A601D686268284600F04A
:10385C0095F808B1401B606063682361002384F80D
:10386C004330AAE72A46494640462369D0470130EF
:10387C00ADD023689B0713D4E068039B9842B8BF74
:10388C001846A6E70123324649464046D047013048
:10389C009DD00135E36803995B1AAB42F2DCEBE790
:1038AC00002504F11906F5E7CB3A0008DC3A0008CC
:1038BC000148FFF76FBC00BFA80200200148FFF7CA
:1038CC006ABC00BFA80200202DE9F04180461446D6
:1038DC000E4621B91146BDE8F041FFF7D5BD2AB916
:1038EC0000F068F825462846BDE8F08100F0AAF8FB
:1038FC008442074602D8B4EB500F12D821464046FA
:10390C00FFF7C2FD05460028EDD0BC4222463146E9
:10391C0028BF3A4600F040F83146404600F04AF8DD
:10392C00E1E73546DFE7884210B501EB020402D926
:10393C008442234607D8431EA14208D011F8012B1C
:10394C0003F8012FF8E7014602448A4200D110BD6A
:10395C0013F8014D02F8014DF7E7000038B50023CC
:10396C00054D044608462B60FCF7C4FF431C02D1EE
:10397C002B6803B1236038BDB4020020034610B598
:10398C00C9B202449342184601D1002003E00478E6
:10399C0001338C42F6D110BD0A44914200F1FF3341
:1039AC0000D1704710B511F8014B914203F8014F4B
:1039BC00F9D110BD38B50546002940D051F8043C6A
:1039CC000C1F002BB8BFE418FFF772FF1C4A1368DA
:1039DC0033B9636014602846BDE83840FFF76EBF0A
:1039EC00A34208D9206821188B4201BF19685B6873
:1039FC0009182160EDE71A465B680BB1A342FAD9AE
:103A0C0011685018A0420BD1206801445018834211
:103A1C001160E0D118685B68084410605360DAE705
:103A2C0002D90C232B60D6E7206821188B4201BFEA
:103A3C0019685B680918216063605460CBE738BD76
:103A4C00AC02002051F8043C181F002BBCBF0B58D3
:103A5C00C0187047F8B500BFF8BC08BC9E4670474C
:0C3A6C00F8B500BFF8BC08BC9E467047CF
:103A780063313A202575200063323A2025752000ED
:103A880063333A2025752000000000000000000084
:103A980001020304060708090000000001020304EC
:103AA80002030405060708090A0B0C0D0E0F101077
:103AB8000102232D302B2000686C4C006566674599
:103AC800464700303132333435363738394142438E
:103AD800444546003031323334353637383961623F
:083AE800636465660000000044
:043AF0003101000898
:043AF4000D010008B8
:103AF8000024F40010000000010000000000000095
:103B080070010020D80100204002002000000000C1
:103B1800000000000000000000000000000000009D
:103B2800000000000000000000000000000000008D
:103B3800000000000000000000000000000000007D
:0C3B480000000000000000000C00002045
:04000005080009796D
:00000001FF
